:040000008A15002835
:0E000600213083120313FD00FD0B07280800B4
:100014000F3083120313FC004730FD00FD0B102842
:0A002400FC0B10280000000008008B
:06002E00000000000800C4
:10003400FB14FB1F2428FF30F300F200F100F00052
:08004400FA0DF20CFF30080078
:10004C0083160313DD1B2D28831286112F28831290
:10005C00861583165D1B35288312061137288312EB
:10006C0006158316DD1A3D28831286103F2883124D
:10007C00861483165D1A45288312061047288312AE
:10008C00061483164D184D28831206164F2883121A
:10009C0006128616172086128316DD19582883122D
:1000AC0086115A288312861583165D1960288312CF
:1000BC0006116228831206158316DD186828831230
:1000CC0086106A288312861483165D187028831292
:1000DC00061072288312061483164D187828831282
:1000EC0006167A2883120612861617208612831695
:0C00FC004D1C82280A20832803200800E5
:100108007B15FB1F8E280130F300F201F101F0018D
:08011800FA0DF20CFF300800A3
:08012000FA1FF2130030080081
:0E012800F201F101F001F801F30100300800CE
:1001360083120313FB01FA01F9018030F800F10C78
:10014600F00C031CAF287408F90775080318750F1F
:10015600FA070318FB0A0310F01FB7287408FA07FA
:1001660075080318750FFB07FB0CFA0CF90CF80C55
:10017600031CA2287B08F3007A08F2007908F10034
:060186007808F0000800FB
:10018C00831603135B08F2007208F100F20A5C0894
:10019C00F000DC0A700884000008F000710884008C
:1001AC00700880007108840000080319DE28CA2832
:0601BC005B08F0000800E2
:0E01C200831203136F088A006E088200080083
:1001D00083120313FA017308031D7A147708031DB1
:1001E000FA147A0803193429033A0319FF287A18F4
:1001F000FC28F61F32293029F21F302932297208D3
:100200008039FA00F21376088039F6137A0603195A
:100210000D297A0803193029322977087302031946
:100220001429031C28292C297608720203191B297A
:10023000031C28292C297508710203192229031C83
:1002400028292C29740870020319342903182C2931
:10025000FA08031932293029FA08031930293229FA
:100260000314080003100800031403150800080015
:100270000E3083120313FD00FD0B3C290000080023
:10028000831603134D105B08DD00262083164D14E2
:02029000080064
:1002920083120313FD01F801700803190034740678
:1002A200FA00FA1BFD09FB01F41F5929F409F40AAB
:1002B200F01F5D29F009F00A70087404FA00FA1BB5
:1002C20081297408F802F00D700DF80D7408F80712
:1002D200F00D0630FC00700DF80D74087018F8026D
:1002E200701CF807F00DFC0B6C29701CF8077B18CA
:1002F2008F29FD1F0034F009F00AF809F80A0034CA
:10030200F41F8C29F01B89297008F800F0017A2962
:10031200F001F00A0034F009FB0A6229F80A7408B5
:100322007802031D7A29F801F00AF01F7A29FF34B6
:020332000800C1
:10033400A0017208031DAF297108F2007008F100D2
:10034400F001A0157208031DAF297108F200F10134
:10035400A011201672080319BD292008F302031DF9
:10036400031CC1290310F21BC529F00DF10DF20D78
:10037400F30BB529C1290130FC009420C8290230AF
:0E038400FC008420C8290430FC0090200800F2
:1003920083120313FB017308031D77080319202A34
:1003A20072087606FA007708F3077E30031CDD290F
:1003B200F3020318232AE029F302031C262A7208F7
:1003C200F8007108FC007008FD00F817F61703101A
:1003D200F201F101F0011830A0007D1CFA29740825
:1003E200F00775080318750FF10776080318760FE2
:1003F200F207F20CF10CF00CF80CFC0CFD0C0310E3
:10040200A00BEE29F21B0A2AF80DF00DF10DF20DE8
:10041200F3037B1B701C1C2AF81F1C2AF00A031909
:10042200F10A0319F20A031D1C2AF20CF10CF00C5A
:10043200F30A0319232AFA1FF2130030282A013083
:100442009420282A02301A20282A0430842000000E
:020452000800A0
:06045400FB15FF3008005B
:10045A003F2A803083160313CE00522AC030CE00C2
:10046A00522A9430CE00522AD430CE00522A8030FA
:10047A00CE00522A831603134E08013A03192E2A74
:10048A004E08023A0319332A4E08033A0319362A48
:10049A004E08043A0319392A3C2A4F03F0004E0841
:1004AA00F0077008CE004D147008DD002620831670
:0E04BA004D105008DD00262083164D1408005A
:1004C800831203139F01C0309F042709F0007008AE
:1004D80083169F051F179F174E08F000F00D701028
:1004E800F00D7010F00D7010700883129F041F1427
:1004F80038211F151F1D822A00007E2A1F101E0882
:10050800F100F00183161E08F0040030F104080021
:1005180083160313D901DA014E08D5004F08D60017
:100528005008D7005108D8005808FF3A031DA62ADA
:100538005708FF3A031DA62A5608FF3A031DA62AA4
:100548005508FF3A031DB02A5208DB002830DC00AA
:10055800C6200330F000912C0130D300D71FBF2AEA
:1005680080305706F0007008D700D30A520884007C
:100578002D308000D20A0030F0005806031DCE2A24
:1005880070085706031DCE2A70085606031DCE2A8A
:100598005508003A031DD72A5208DB002130DC0039
:1005A800C620F001912C5808FF3A031DE52A570888
:1005B800003A031DE52A5608003A031DE52A5508A6
:1005C800003A031DEF2A5208DB002330DC00C62066
:1005D8005308F000912C0030F4000030F500003092
:1005E800F6007F30F7005508F0005608F10057086C
:1005F800F2005808F300E820013003180030F0003A
:1006080070080319242B83165508F0005608F100CA
:100618005708F2005808F3000030F4000030F500E5
:100628002030F6008230F700C92170088316D50003
:100638007108D6007208D7007308D800DA03EF2AC9
:1006480083160030F4000030F5002030F6008230C8
:10065800F7005508F0005608F1005708F20058084E
:10066800F300E8200130031C0030F0007008031983
:100678005A2B83165508F0005608F1005708F20067
:100688005808F300CD30F400CC30F5004C30F600BB
:100698007B30F700C92170088316D5007108D60091
:1006A8007208D7007308D800DA0A242B8316FF30A3
:1006B8005505F800FF305605F9007F305705FA0058
:1006C80000305805FB007808F4007908F5007A082E
:1006D800F6007B08F700F40DF50DF60DF70D741014
:1006E80000305505F00000305605F1000030570580
:1006F800F200FF305805F3007008D5007108D600E5
:100708007208D7007308D80074085504F0007508FB
:100718005604F10076085704F20077085804F300ED
:100728007008D5007108D6007208D7007308D80081
:100738007F305802F0007008D4000130D8007008EB
:10074800F4005508F0005608F1005708F200580860
:10075800F30074080319B72BF00DF10DF20DF30D2A
:100768007010FF3EAE2B7008D5007108D6007208D5
:10077800D7007308D8005808303EF00052088400AB
:1007880070088000D20A80305A06F0008030013AA2
:100798007002031CD82B8030063AF00080305A06CD
:1007A8007002031CD82BDF2B520884002E308000E7
:1007B800D20A0130D9000630D4005408003A03198F
:1007C8003D2CD8015508F0005608F1005708F200F2
:1007D8005808F300F00DF10DF20DF30D7010F00D47
:1007E800F10DF20DF30D70105508F00756080318B7
:1007F800560FF10757080318570FF2075808031840
:10080800580FF3077008D5007108D6007208D70092
:100818007308D8005508F0005608F1005708F20090
:100828005808F300F00DF10DF20DF30D701070087B
:10083800D5007108D6007208D7007308D800580888
:10084800303EF0005208840070088000D20A59082F
:10085800003A031D3B2CDA035A08003A031D3B2CCF
:10086800520884002E308000D20A0130D900D40307
:10087800E12BFF30520784000008303A031D462C54
:10088800D2033D2CFF305207840000082E3A031D86
:100898004E2CD2035A08003A03198D2C52088400B2
:1008A80065308000D20A80305A06F0008030003A65
:1008B80070020318672C520884002D308000D20A79
:1008C8005A08003CDA005A08D4008030093AF0008F
:1008D80080305A06700203187E2C0A30F40054083F
:1008E800F00049213030F007831652088400700860
:1008F8008000D20A0A30F4005408F0004921780830
:10090800F0003030F0078316520884007008800029
:0C091800D20A520884008001F00108009F
:10092400831203137008F8007108F000F101F2015A
:10093400F301FB01FC019630F300FA017008F100A9
:0C0944007808F000F801F2019A21080088
:10095000831603131208013EF000F1010318F10A97
:100960004E08F400F5019B200630F2007008F400F8
:100970007108F50072080319C22CF50CF40CF5137C
:10098000FF3EBB2C0430F1007408F000710803191D
:10099000CD2CF00D7010FF3EC72C30307005F300E9
:1009A0007408F0007508F100F10CF00CF113F10C73
:1009B000F00CF113700895000F3097057308970439
:0209C00008002D
:1009C200F32C803083160313CE00062DC030CE00E8
:1009D200062D9430CE00062DD430CE00062D803068
:1009E200CE00062D831603134E08013A0319E22C9A
:1009F2004E08023A0319E72C4E08033A0319EA2C6F
:100A02004E08043A0319ED2CF02C4F03F0004E0867
:100A1200F0077008CE007008DD00262083164D1006
:100A2200D10151085007840000080319202D5108F4
:100A3200500784000008DB004021D10A122D4D141A
:020A42000800AA
:100A440083160313861206120610861006118611E9
:100A540083128612061286110611861006100A20C9
:100A64000A200A20861406148616172086120A20E5
:100A74008616172086120A208616172086120A2048
:100A840006108616172086120A208616172086124C
:100A9400861086158616172086120A2086110614DB
:100AA40086161720861206108616172086120A202C
:100AB40086161720861206148616172086120A2018
:100AC4000610861617208612861506158614061437
:0E0AD4008616172086120A2083164D1408007D
:100AE200831603130711831212150C3097040800A2
:0C0AF200831203139501171297120800DD
:100AFE00FF3083160313B700FF30B800FF30B90084
:100B0E00FF3083129F01C0309F042709F000700848
:0E0B1E0083169F051F179F1783121F140800D0
:100B2C00831203137408003A031DB12D7508003AA3
:100B3C00031DB12D7608003A031DB12D7708003A3C
:100B4C00031DB12DFF30F000FF30F1007F30F200BB
:100B5C00FF30F3004C2E8312031377080319402E39
:100B6C0073080319432E720876068039FA00F217BF
:100B7C00F617A0017208F8007108FC007008FD005F
:100B8C007408FD027508031C750FFC027608031C23
:100B9C00760FF802F801FC01FD01031CDC2D03109B
:100BAC00F20CF10CF00CF80C0130A0007708F302F9
:100BBC00031CE62D7E302007F3070318462EEB2D81
:100BCC007E302007F307031C492E1830FA07FD0D61
:100BDC00FC0DF80DF00DF10DF20DA00D7408F002E6
:100BEC007508031C750FF1027608031C760FF202D0
:100BFC00760DA004201C042E7D140F2E7408F00713
:100C0C0075080318750FF10776080318760AF207B2
:100C1C007D10FA031F307A05031DED2D7B1B7D1C07
:100C2C00362E0310F00DF10DF20DA00D7408F0022C
:100C3C007508031C750FF1027608031C760FF2027F
:100C4C00760D20040139FD070318FC0A0319F80A74
:100C5C00031D362EF80CFC0CFD0CF30A0319462E62
:100C6C00FA1FF8137808F2007C08F1007D08F000F8
:100C7C0000304B2E01302A224B2E023094204B2E6A
:0E0C8C0004301A204B2E08308420000008008F
:100C9A00E1208A110A128000840AEE0A0319EF0A77
:080CAA00F003031D4D2E0800AC
:100D7C00213084004D3083120313F0005930EE0003
:100D8C000630EF004D26A030840017308312F0009F
:0C0D9C00A630EE000630EF004D260800E7
:101000008A11BE268A158316031305140130831234
:1010100086003330FB00BB30FC00DF30FD00FD0BF1
:101020000F28FC0B0F28FB0B0F2800000000831675
:1010300089018801FF30831288008A117F258A1573
:101040008A1122258A150130DD008A1126208A1591
:101050000C308316DD008A1126208A151214921492
:101060007C30831692008A1179258A158A117125A0
:101070008A150130890001308316CE000130CF007F
:101080002C30D0008A11E1248A150230CE000130C4
:10109000CF00A030D0008A11E1248A150B30FB006C
:1010A0002630FC005D30FD00FD0B5428FC0B54285D
:1010B000FB0B5428000000000130DD008A112620BF
:1010C0008A1501308316CE000130CF006730D00082
:1010D0008A11E1248A150230CE000830CF00E930B1
:1010E000D0008A112D228A150230CE000930CF009F
:1010F0004330D0008A112D228A15CE018A11642234
:101100008A1570088312E5007108E6008A1192249E
:101110008A150030F4000030F5007A30F6007D309A
:10112000F7008A11C9218A1570088316C900710851
:10113000CA007208CB007308CC000030F400003005
:10114000F5002030F6008230F7008A1196258A15C6
:1011500070088316C9007108CA007208CB007308B2
:10116000CC000630FB001330FC00AD30FD00FD0B61
:10117000B728FC0BB728FB0BB72800000000490874
:10118000CE004A08CF004B08D0004C08D100BA303E
:10119000D2008A118C228A15BE010130CE000630A1
:1011A000CF00BA30D0008A11E1248A154908F40032
:1011B0004A08F5004B08F6004C08F7003330F00001
:1011C0003330F1004730F2008330F3008A11E82019
:1011D0008A150130031C0030F00070080319002943
:1011E0008316CE018A11A8248A1502308316CE00F8
:1011F0000130CF00AC30D0008A11E1248A15722A68
:1012000083164908F4004A08F5004B08F6004C081C
:10121000F7000030F0000030F1004830F200833079
:10122000F3008A11E8208A15013003180030F0001D
:1012300070080319472983164908F4004A08F50085
:101240004B08F6004C08F7003330F0003330F10063
:101250006F30F2008330F3008A11E8208A150130E4
:10126000031C0030F0007008031947291130831661
:10127000CE008A11A8248A1502308316CE000130D0
:10128000CF004330D0008A11E1248A15722A8316D8
:101290000030F4000030F5007030F6008330F700C5
:1012A0004908F0004A08F1004B08F2004C08F3002E
:1012B0008A11E8208A150130031C0030F000700804
:1012C00003198E2983164908F4004A08F5004B08D3
:1012D000F6004C08F7009A30F0009930F1000B301E
:1012E000F2008430F3008A11E8208A150130031CD3
:1012F0000030F000700803198E2923308316CE00C9
:101300008A11A8248A1502308316CE000130CF003E
:101310003B30D0008A11E1248A15722A83160030EE
:10132000F4000030F5000C30F6008430F700490876
:10133000F0004A08F1004B08F2004C08F3008A1153
:10134000E8208A150130031C0030F00070080319F2
:10135000D52983164908F4004A08F5004B08F60021
:101360004C08F7009A30F0009930F1001F30F2007D
:101370008430F3008A11E8208A150130031C003004
:10138000F00070080319D52946308316CE008A1163
:10139000A8248A1502308316CE000130CF003330E6
:1013A000D0008A11E1248A15722A83160030F400D5
:1013B0000030F5002030F6008430F7004908F000D6
:1013C0004A08F1004B08F2004C08F3008A11E820AB
:1013D0008A150130031C0030F000700803191C2A24
:1013E00083164908F4004A08F5004B08F6004C083B
:1013F000F7009A30F0009930F1003330F200843079
:10140000F3008A11E8208A150130031C0030F00037
:10141000700803191C2A6A308316CE008A11A8248A
:101420008A1502308316CE000130CF005D30D00027
:101430008A11E1248A15722A83160030F4000030E4
:10144000F5003430F6008430F7004908F0004A080F
:10145000F1004B08F2004C08F3008A11E8208A15CD
:101460000130031C0030F00070080319632A831652
:101470004908F4004A08F5004B08F6004C08F7004C
:101480009A30F0009930F1004730F2008430F300D8
:101490008A11E8208A150130031C0030F000700822
:1014A0000319632A84308316CE008A11A8248A1572
:1014B00002308316CE000830CF005530D0008A119C
:1014C000E1248A15722A8316CE018A11A8248A156E
:1014D00002308316CE000830CF004D30D0008A1184
:0814E000E1248A157D28732A1E
:040CB20030340034A6
:080CB60049344E344634003489
:020CBE000F34F1
:080CC0004E3461344E3400345F
:0E0CC800543445344D3450343A342034003422
:100CD6003434303430342034523450344D340034CB
:100CE6003234303430342034523450344D340034BD
:100CF600463441344E3420344934533420344F344E
:040D06004E34003433
:100D0A003834303430342034523450344D34003492
:100D1A003734353430342034523450344D3400347E
:100D2A003634303430342034523450344D34003474
:040D3A00003400344D
:0E0D3E00543465346D3470343A34203400344B
:100D4C00463461346E342034533470346534653435
:080D5C0064343A342034003401
:100D6400463441344E3420344934533420344F34DF
:060D740046344634003451
:02400E004A2F37
:00000001FF
